{
  "_format": "hh-sol-artifact-1",
  "contractName": "SocialFeed",
  "sourceName": "contracts/SocialFeed.sol",
  "abi": [
    {
      "inputs": [],
      "name": "ReentrancyGuardReentrantCall",
      "type": "error"
    },
    {
      "inputs": [
        {
          "internalType": "address",
          "name": "token",
          "type": "address"
        }
      ],
      "name": "SafeERC20FailedOperation",
      "type": "error"
    },
    {
      "anonymous": false,
      "inputs": [
        {
          "indexed": true,
          "internalType": "uint256",
          "name": "postId",
          "type": "uint256"
        },
        {
          "indexed": true,
          "internalType": "uint256",
          "name": "commentId",
          "type": "uint256"
        },
        {
          "indexed": true,
          "internalType": "address",
          "name": "commenter",
          "type": "address"
        },
        {
          "indexed": false,
          "internalType": "string",
          "name": "content",
          "type": "string"
        },
        {
          "indexed": false,
          "internalType": "uint256",
          "name": "timestamp",
          "type": "uint256"
        }
      ],
      "name": "CommentAdded",
      "type": "event"
    },
    {
      "anonymous": false,
      "inputs": [
        {
          "indexed": true,
          "internalType": "uint256",
          "name": "postId",
          "type": "uint256"
        },
        {
          "indexed": true,
          "internalType": "address",
          "name": "author",
          "type": "address"
        },
        {
          "indexed": false,
          "internalType": "string",
          "name": "content",
          "type": "string"
        },
        {
          "indexed": false,
          "internalType": "uint256",
          "name": "timestamp",
          "type": "uint256"
        }
      ],
      "name": "PostCreated",
      "type": "event"
    },
    {
      "anonymous": false,
      "inputs": [
        {
          "indexed": true,
          "internalType": "uint256",
          "name": "postId",
          "type": "uint256"
        },
        {
          "indexed": true,
          "internalType": "address",
          "name": "liker",
          "type": "address"
        },
        {
          "indexed": false,
          "internalType": "uint256",
          "name": "timestamp",
          "type": "uint256"
        }
      ],
      "name": "PostLiked",
      "type": "event"
    },
    {
      "anonymous": false,
      "inputs": [
        {
          "indexed": true,
          "internalType": "uint256",
          "name": "postId",
          "type": "uint256"
        },
        {
          "indexed": true,
          "internalType": "address",
          "name": "from",
          "type": "address"
        },
        {
          "indexed": true,
          "internalType": "address",
          "name": "to",
          "type": "address"
        },
        {
          "indexed": false,
          "internalType": "address",
          "name": "token",
          "type": "address"
        },
        {
          "indexed": false,
          "internalType": "uint256",
          "name": "amount",
          "type": "uint256"
        },
        {
          "indexed": false,
          "internalType": "uint256",
          "name": "timestamp",
          "type": "uint256"
        }
      ],
      "name": "TipERC20Sent",
      "type": "event"
    },
    {
      "anonymous": false,
      "inputs": [
        {
          "indexed": true,
          "internalType": "uint256",
          "name": "postId",
          "type": "uint256"
        },
        {
          "indexed": true,
          "internalType": "address",
          "name": "from",
          "type": "address"
        },
        {
          "indexed": true,
          "internalType": "address",
          "name": "to",
          "type": "address"
        },
        {
          "indexed": false,
          "internalType": "uint256",
          "name": "amount",
          "type": "uint256"
        },
        {
          "indexed": false,
          "internalType": "uint256",
          "name": "timestamp",
          "type": "uint256"
        }
      ],
      "name": "TipSent",
      "type": "event"
    },
    {
      "inputs": [
        {
          "internalType": "uint256",
          "name": "postId",
          "type": "uint256"
        },
        {
          "internalType": "string",
          "name": "content",
          "type": "string"
        }
      ],
      "name": "commentOnPost",
      "outputs": [],
      "stateMutability": "nonpayable",
      "type": "function"
    },
    {
      "inputs": [
        {
          "internalType": "uint256",
          "name": "",
          "type": "uint256"
        },
        {
          "internalType": "uint256",
          "name": "",
          "type": "uint256"
        }
      ],
      "name": "comments",
      "outputs": [
        {
          "internalType": "address",
          "name": "commenter",
          "type": "address"
        },
        {
          "internalType": "string",
          "name": "content",
          "type": "string"
        },
        {
          "internalType": "uint256",
          "name": "timestamp",
          "type": "uint256"
        }
      ],
      "stateMutability": "view",
      "type": "function"
    },
    {
      "inputs": [
        {
          "internalType": "address",
          "name": "",
          "type": "address"
        }
      ],
      "name": "commentsReceived",
      "outputs": [
        {
          "internalType": "uint256",
          "name": "",
          "type": "uint256"
        }
      ],
      "stateMutability": "view",
      "type": "function"
    },
    {
      "inputs": [
        {
          "internalType": "string",
          "name": "content",
          "type": "string"
        }
      ],
      "name": "createPost",
      "outputs": [],
      "stateMutability": "nonpayable",
      "type": "function"
    },
    {
      "inputs": [
        {
          "internalType": "uint256",
          "name": "postId",
          "type": "uint256"
        }
      ],
      "name": "getComments",
      "outputs": [
        {
          "components": [
            {
              "internalType": "address",
              "name": "commenter",
              "type": "address"
            },
            {
              "internalType": "string",
              "name": "content",
              "type": "string"
            },
            {
              "internalType": "uint256",
              "name": "timestamp",
              "type": "uint256"
            }
          ],
          "internalType": "struct SocialFeed.Comment[]",
          "name": "",
          "type": "tuple[]"
        }
      ],
      "stateMutability": "view",
      "type": "function"
    },
    {
      "inputs": [
        {
          "internalType": "uint256",
          "name": "id",
          "type": "uint256"
        }
      ],
      "name": "getPost",
      "outputs": [
        {
          "components": [
            {
              "internalType": "uint256",
              "name": "id",
              "type": "uint256"
            },
            {
              "internalType": "address",
              "name": "author",
              "type": "address"
            },
            {
              "internalType": "string",
              "name": "content",
              "type": "string"
            },
            {
              "internalType": "uint256",
              "name": "likeCount",
              "type": "uint256"
            },
            {
              "internalType": "uint256",
              "name": "commentCount",
              "type": "uint256"
            },
            {
              "internalType": "uint256",
              "name": "tipAmount",
              "type": "uint256"
            },
            {
              "internalType": "uint256",
              "name": "timestamp",
              "type": "uint256"
            }
          ],
          "internalType": "struct SocialFeed.Post",
          "name": "",
          "type": "tuple"
        }
      ],
      "stateMutability": "view",
      "type": "function"
    },
    {
      "inputs": [
        {
          "internalType": "address",
          "name": "user",
          "type": "address"
        }
      ],
      "name": "getReputation",
      "outputs": [
        {
          "internalType": "uint256",
          "name": "score",
          "type": "uint256"
        }
      ],
      "stateMutability": "view",
      "type": "function"
    },
    {
      "inputs": [
        {
          "internalType": "uint256",
          "name": "postId",
          "type": "uint256"
        }
      ],
      "name": "likePost",
      "outputs": [],
      "stateMutability": "nonpayable",
      "type": "function"
    },
    {
      "inputs": [
        {
          "internalType": "uint256",
          "name": "",
          "type": "uint256"
        },
        {
          "internalType": "address",
          "name": "",
          "type": "address"
        }
      ],
      "name": "liked",
      "outputs": [
        {
          "internalType": "bool",
          "name": "",
          "type": "bool"
        }
      ],
      "stateMutability": "view",
      "type": "function"
    },
    {
      "inputs": [
        {
          "internalType": "address",
          "name": "",
          "type": "address"
        }
      ],
      "name": "likesReceived",
      "outputs": [
        {
          "internalType": "uint256",
          "name": "",
          "type": "uint256"
        }
      ],
      "stateMutability": "view",
      "type": "function"
    },
    {
      "inputs": [],
      "name": "postCount",
      "outputs": [
        {
          "internalType": "uint256",
          "name": "",
          "type": "uint256"
        }
      ],
      "stateMutability": "view",
      "type": "function"
    },
    {
      "inputs": [
        {
          "internalType": "uint256",
          "name": "",
          "type": "uint256"
        }
      ],
      "name": "posts",
      "outputs": [
        {
          "internalType": "uint256",
          "name": "id",
          "type": "uint256"
        },
        {
          "internalType": "address",
          "name": "author",
          "type": "address"
        },
        {
          "internalType": "string",
          "name": "content",
          "type": "string"
        },
        {
          "internalType": "uint256",
          "name": "likeCount",
          "type": "uint256"
        },
        {
          "internalType": "uint256",
          "name": "commentCount",
          "type": "uint256"
        },
        {
          "internalType": "uint256",
          "name": "tipAmount",
          "type": "uint256"
        },
        {
          "internalType": "uint256",
          "name": "timestamp",
          "type": "uint256"
        }
      ],
      "stateMutability": "view",
      "type": "function"
    },
    {
      "inputs": [
        {
          "internalType": "uint256",
          "name": "postId",
          "type": "uint256"
        }
      ],
      "name": "tipPost",
      "outputs": [],
      "stateMutability": "payable",
      "type": "function"
    },
    {
      "inputs": [
        {
          "internalType": "uint256",
          "name": "postId",
          "type": "uint256"
        },
        {
          "internalType": "address",
          "name": "token",
          "type": "address"
        },
        {
          "internalType": "uint256",
          "name": "amount",
          "type": "uint256"
        }
      ],
      "name": "tipPostERC20",
      "outputs": [],
      "stateMutability": "nonpayable",
      "type": "function"
    },
    {
      "inputs": [
        {
          "internalType": "address",
          "name": "",
          "type": "address"
        }
      ],
      "name": "tipsReceived",
      "outputs": [
        {
          "internalType": "uint256",
          "name": "",
          "type": "uint256"
        }
      ],
      "stateMutability": "view",
      "type": "function"
    }
  ],
  "bytecode": "0x6080604052348015600f57600080fd5b506001600081905550612540806100276000396000f3fe6080604052600436106100e85760003560e01c8063695063ef1161008a5780639c89a0e2116100595780639c89a0e214610337578063c7303c6114610374578063f7c299561461039d578063fc6c776f146103c6576100e8565b8063695063ef146102785780636ad034ec146102b5578063725009d3146102f257806374d3c1f81461031b576100e8565b80632252dc71116100c65780632252dc711461019857806323edf697146101d557806340731c2414610212578063647321541461024f576100e8565b806302c42787146100ed5780630b1e7f831461012a57806317906c2e1461016d575b600080fd5b3480156100f957600080fd5b50610114600480360381019061010f919061171a565b610405565b6040516101219190611775565b60405180910390f35b34801561013657600080fd5b50610151600480360381019061014c9190611790565b610434565b604051610164979695949392919061186b565b60405180910390f35b34801561017957600080fd5b5061018261051e565b60405161018f91906118e1565b60405180910390f35b3480156101a457600080fd5b506101bf60048036038101906101ba91906118fc565b610524565b6040516101cc91906118e1565b60405180910390f35b3480156101e157600080fd5b506101fc60048036038101906101f79190611790565b61053c565b6040516102099190611aa3565b60405180910390f35b34801561021e57600080fd5b5061023960048036038101906102349190611790565b6106a0565b6040516102469190611b61565b60405180910390f35b34801561025b57600080fd5b5061027660048036038101906102719190611be8565b6107e7565b005b34801561028457600080fd5b5061029f600480360381019061029a91906118fc565b610a86565b6040516102ac91906118e1565b60405180910390f35b3480156102c157600080fd5b506102dc60048036038101906102d791906118fc565b610a9e565b6040516102e991906118e1565b60405180910390f35b3480156102fe57600080fd5b5061031960048036038101906103149190611790565b610ab6565b005b61033560048036038101906103309190611790565b610d19565b005b34801561034357600080fd5b5061035e600480360381019061035991906118fc565b610f94565b60405161036b91906118e1565b60405180910390f35b34801561038057600080fd5b5061039b60048036038101906103969190611c48565b6110a0565b005b3480156103a957600080fd5b506103c460048036038101906103bf9190611c95565b61124a565b005b3480156103d257600080fd5b506103ed60048036038101906103e89190611ce8565b6113c6565b6040516103fc93929190611d28565b60405180910390f35b60046020528160005260406000206020528060005260406000206000915091509054906101000a900460ff1681565b60026020528060005260406000206000915090508060000154908060010160009054906101000a900473ffffffffffffffffffffffffffffffffffffffff169080600201805461048390611d95565b80601f01602080910402602001604051908101604052809291908181526020018280546104af90611d95565b80156104fc5780601f106104d1576101008083540402835291602001916104fc565b820191906000526020600020905b8154815290600101906020018083116104df57829003601f168201915b5050505050908060030154908060040154908060050154908060060154905087565b60015481565b60076020528060005260406000206000915090505481565b606060036000838152602001908152602001600020805480602002602001604051908101604052809291908181526020016000905b8282101561069557838290600052602060002090600302016040518060600160405290816000820160009054906101000a900473ffffffffffffffffffffffffffffffffffffffff1673ffffffffffffffffffffffffffffffffffffffff1673ffffffffffffffffffffffffffffffffffffffff1681526020016001820180546105fa90611d95565b80601f016020809104026020016040519081016040528092919081815260200182805461062690611d95565b80156106735780601f1061064857610100808354040283529160200191610673565b820191906000526020600020905b81548152906001019060200180831161065657829003601f168201915b5050505050815260200160028201548152505081526020019060010190610571565b505050509050919050565b6106a8611629565b600260008381526020019081526020016000206040518060e0016040529081600082015481526020016001820160009054906101000a900473ffffffffffffffffffffffffffffffffffffffff1673ffffffffffffffffffffffffffffffffffffffff1673ffffffffffffffffffffffffffffffffffffffff16815260200160028201805461073690611d95565b80601f016020809104026020016040519081016040528092919081815260200182805461076290611d95565b80156107af5780601f10610784576101008083540402835291602001916107af565b820191906000526020600020905b81548152906001019060200180831161079257829003601f168201915b505050505081526020016003820154815260200160048201548152602001600582015481526020016006820154815250509050919050565b6000831180156107f957506001548311155b610838576040517f08c379a000000000000000000000000000000000000000000000000000000000815260040161082f90611e12565b60405180910390fd5b6003600084815260200190815260200160002060405180606001604052803373ffffffffffffffffffffffffffffffffffffffff16815260200184848080601f016020809104026020016040519081016040528093929190818152602001838380828437600081840152601f19601f82011690508083019250505050505050815260200142815250908060018154018082558091505060019003906000526020600020906003020160009091909190915060008201518160000160006101000a81548173ffffffffffffffffffffffffffffffffffffffff021916908373ffffffffffffffffffffffffffffffffffffffff1602179055506020820151816001019081610945919061200d565b506040820151816002015550506002600084815260200190815260200160002060040160008154809291906109799061210e565b91905055506001600660006002600087815260200190815260200160002060010160009054906101000a900473ffffffffffffffffffffffffffffffffffffffff1673ffffffffffffffffffffffffffffffffffffffff1673ffffffffffffffffffffffffffffffffffffffff1681526020019081526020016000206000828254610a049190612156565b925050819055503373ffffffffffffffffffffffffffffffffffffffff1660016003600086815260200190815260200160002080549050610a45919061218a565b847f92eb5433849a5a2a1922dadaf613eff78bb7de4173779f8d4683b877aac7260f858542604051610a79939291906121fa565b60405180910390a4505050565b60066020528060005260406000206000915090505481565b60056020528060005260406000206000915090505481565b600081118015610ac857506001548111155b610b07576040517f08c379a0000000000000000000000000000000000000000000000000000000008152600401610afe90611e12565b60405180910390fd5b6004600082815260200190815260200160002060003373ffffffffffffffffffffffffffffffffffffffff1673ffffffffffffffffffffffffffffffffffffffff16815260200190815260200160002060009054906101000a900460ff1615610ba5576040517f08c379a0000000000000000000000000000000000000000000000000000000008152600401610b9c90612278565b60405180910390fd5b60016004600083815260200190815260200160002060003373ffffffffffffffffffffffffffffffffffffffff1673ffffffffffffffffffffffffffffffffffffffff16815260200190815260200160002060006101000a81548160ff021916908315150217905550600260008281526020019081526020016000206003016000815480929190610c359061210e565b91905055506001600560006002600085815260200190815260200160002060010160009054906101000a900473ffffffffffffffffffffffffffffffffffffffff1673ffffffffffffffffffffffffffffffffffffffff1673ffffffffffffffffffffffffffffffffffffffff1681526020019081526020016000206000828254610cc09190612156565b925050819055503373ffffffffffffffffffffffffffffffffffffffff16817fdfb8e3561bacb6caea7f0960d425956921b9147a631b6e857325c39911ee7e3b42604051610d0e91906118e1565b60405180910390a350565b610d216114b5565b600081118015610d3357506001548111155b610d72576040517f08c379a0000000000000000000000000000000000000000000000000000000008152600401610d6990611e12565b60405180910390fd5b60003411610db5576040517f08c379a0000000000000000000000000000000000000000000000000000000008152600401610dac906122e4565b60405180910390fd5b60006002600083815260200190815260200160002060010160009054906101000a900473ffffffffffffffffffffffffffffffffffffffff16905034600260008481526020019081526020016000206005016000828254610e169190612156565b9250508190555034600760008373ffffffffffffffffffffffffffffffffffffffff1673ffffffffffffffffffffffffffffffffffffffff1681526020019081526020016000206000828254610e6c9190612156565b9250508190555060008173ffffffffffffffffffffffffffffffffffffffff1634604051610e9990612335565b60006040518083038185875af1925050503d8060008114610ed6576040519150601f19603f3d011682016040523d82523d6000602084013e610edb565b606091505b5050905080610f1f576040517f08c379a0000000000000000000000000000000000000000000000000000000008152600401610f1690612396565b60405180910390fd5b8173ffffffffffffffffffffffffffffffffffffffff163373ffffffffffffffffffffffffffffffffffffffff16847f3299e7b54fa45d301c13b9f3e3457d07539ddd0ab256569554f202fb832ae6633442604051610f7f9291906123b6565b60405180910390a45050610f916114fb565b50565b60008066038d7ea4c68000600760008573ffffffffffffffffffffffffffffffffffffffff1673ffffffffffffffffffffffffffffffffffffffff16815260200190815260200160002054610fe9919061240e565b9050806002600660008673ffffffffffffffffffffffffffffffffffffffff1673ffffffffffffffffffffffffffffffffffffffff16815260200190815260200160002054611038919061243f565b6003600560008773ffffffffffffffffffffffffffffffffffffffff1673ffffffffffffffffffffffffffffffffffffffff16815260200190815260200160002054611084919061243f565b61108e9190612156565b6110989190612156565b915050919050565b600160008154809291906110b39061210e565b91905055506040518060e0016040528060015481526020013373ffffffffffffffffffffffffffffffffffffffff16815260200183838080601f016020809104026020016040519081016040528093929190818152602001838380828437600081840152601f19601f820116905080830192505050505050508152602001600081526020016000815260200160008152602001428152506002600060015481526020019081526020016000206000820151816000015560208201518160010160006101000a81548173ffffffffffffffffffffffffffffffffffffffff021916908373ffffffffffffffffffffffffffffffffffffffff16021790555060408201518160020190816111c5919061200d565b50606082015181600301556080820151816004015560a0820151816005015560c082015181600601559050503373ffffffffffffffffffffffffffffffffffffffff166001547f285db98a4632176385795ddf0d2b67cef1a21f47eb2f5d06f786ab6b5147e20084844260405161123e939291906121fa565b60405180910390a35050565b6112526114b5565b60008311801561126457506001548311155b6112a3576040517f08c379a000000000000000000000000000000000000000000000000000000000815260040161129a90611e12565b60405180910390fd5b600081116112e6576040517f08c379a00000000000000000000000000000000000000000000000000000000081526004016112dd906122e4565b60405180910390fd5b60006002600085815260200190815260200160002060010160009054906101000a900473ffffffffffffffffffffffffffffffffffffffff16905061134e3382848673ffffffffffffffffffffffffffffffffffffffff16611505909392919063ffffffff16565b8073ffffffffffffffffffffffffffffffffffffffff163373ffffffffffffffffffffffffffffffffffffffff16857f609e778e9f6c4aa0b21c0c99033093da5c2044d289fbda78dfa5f112564adbe78686426040516113b093929190612481565b60405180910390a4506113c16114fb565b505050565b600360205281600052604060002081815481106113e257600080fd5b9060005260206000209060030201600091509150508060000160009054906101000a900473ffffffffffffffffffffffffffffffffffffffff169080600101805461142c90611d95565b80601f016020809104026020016040519081016040528092919081815260200182805461145890611d95565b80156114a55780601f1061147a576101008083540402835291602001916114a5565b820191906000526020600020905b81548152906001019060200180831161148857829003601f168201915b5050505050908060020154905083565b6002600054036114f1576040517f3ee5aeb500000000000000000000000000000000000000000000000000000000815260040160405180910390fd5b6002600081905550565b6001600081905550565b611581848573ffffffffffffffffffffffffffffffffffffffff166323b872dd86868660405160240161153a939291906124b8565b604051602081830303815290604052915060e01b6020820180517bffffffffffffffffffffffffffffffffffffffffffffffffffffffff8381831617835250505050611587565b50505050565b600080602060008451602086016000885af1806115aa576040513d6000823e3d81fd5b3d9250600051915050600082146115c55760018114156115e1565b60008473ffffffffffffffffffffffffffffffffffffffff163b145b1561162357836040517f5274afe700000000000000000000000000000000000000000000000000000000815260040161161a91906124ef565b60405180910390fd5b50505050565b6040518060e0016040528060008152602001600073ffffffffffffffffffffffffffffffffffffffff16815260200160608152602001600081526020016000815260200160008152602001600081525090565b600080fd5b600080fd5b6000819050919050565b61169981611686565b81146116a457600080fd5b50565b6000813590506116b681611690565b92915050565b600073ffffffffffffffffffffffffffffffffffffffff82169050919050565b60006116e7826116bc565b9050919050565b6116f7816116dc565b811461170257600080fd5b50565b600081359050611714816116ee565b92915050565b600080604083850312156117315761173061167c565b5b600061173f858286016116a7565b925050602061175085828601611705565b9150509250929050565b60008115159050919050565b61176f8161175a565b82525050565b600060208201905061178a6000830184611766565b92915050565b6000602082840312156117a6576117a561167c565b5b60006117b4848285016116a7565b91505092915050565b6117c681611686565b82525050565b6117d5816116dc565b82525050565b600081519050919050565b600082825260208201905092915050565b60005b838110156118155780820151818401526020810190506117fa565b60008484015250505050565b6000601f19601f8301169050919050565b600061183d826117db565b61184781856117e6565b93506118578185602086016117f7565b61186081611821565b840191505092915050565b600060e082019050611880600083018a6117bd565b61188d60208301896117cc565b818103604083015261189f8188611832565b90506118ae60608301876117bd565b6118bb60808301866117bd565b6118c860a08301856117bd565b6118d560c08301846117bd565b98975050505050505050565b60006020820190506118f660008301846117bd565b92915050565b6000602082840312156119125761191161167c565b5b600061192084828501611705565b91505092915050565b600081519050919050565b600082825260208201905092915050565b6000819050602082019050919050565b61195e816116dc565b82525050565b600082825260208201905092915050565b6000611980826117db565b61198a8185611964565b935061199a8185602086016117f7565b6119a381611821565b840191505092915050565b6119b781611686565b82525050565b60006060830160008301516119d56000860182611955565b50602083015184820360208601526119ed8282611975565b9150506040830151611a0260408601826119ae565b508091505092915050565b6000611a1983836119bd565b905092915050565b6000602082019050919050565b6000611a3982611929565b611a438185611934565b935083602082028501611a5585611945565b8060005b85811015611a915784840389528151611a728582611a0d565b9450611a7d83611a21565b925060208a01995050600181019050611a59565b50829750879550505050505092915050565b60006020820190508181036000830152611abd8184611a2e565b905092915050565b600060e083016000830151611add60008601826119ae565b506020830151611af06020860182611955565b5060408301518482036040860152611b088282611975565b9150506060830151611b1d60608601826119ae565b506080830151611b3060808601826119ae565b5060a0830151611b4360a08601826119ae565b5060c0830151611b5660c08601826119ae565b508091505092915050565b60006020820190508181036000830152611b7b8184611ac5565b905092915050565b600080fd5b600080fd5b600080fd5b60008083601f840112611ba857611ba7611b83565b5b8235905067ffffffffffffffff811115611bc557611bc4611b88565b5b602083019150836001820283011115611be157611be0611b8d565b5b9250929050565b600080600060408486031215611c0157611c0061167c565b5b6000611c0f868287016116a7565b935050602084013567ffffffffffffffff811115611c3057611c2f611681565b5b611c3c86828701611b92565b92509250509250925092565b60008060208385031215611c5f57611c5e61167c565b5b600083013567ffffffffffffffff811115611c7d57611c7c611681565b5b611c8985828601611b92565b92509250509250929050565b600080600060608486031215611cae57611cad61167c565b5b6000611cbc868287016116a7565b9350506020611ccd86828701611705565b9250506040611cde868287016116a7565b9150509250925092565b60008060408385031215611cff57611cfe61167c565b5b6000611d0d858286016116a7565b9250506020611d1e858286016116a7565b9150509250929050565b6000606082019050611d3d60008301866117cc565b8181036020830152611d4f8185611832565b9050611d5e60408301846117bd565b949350505050565b7f4e487b7100000000000000000000000000000000000000000000000000000000600052602260045260246000fd5b60006002820490506001821680611dad57607f821691505b602082108103611dc057611dbf611d66565b5b50919050565b7f696e76616c696420706f73744964000000000000000000000000000000000000600082015250565b6000611dfc600e836117e6565b9150611e0782611dc6565b602082019050919050565b60006020820190508181036000830152611e2b81611def565b9050919050565b7f4e487b7100000000000000000000000000000000000000000000000000000000600052604160045260246000fd5b60008190508160005260206000209050919050565b60006020601f8301049050919050565b600082821b905092915050565b600060088302611ec37fffffffffffffffffffffffffffffffffffffffffffffffffffffffffffffffff82611e86565b611ecd8683611e86565b95508019841693508086168417925050509392505050565b6000819050919050565b6000611f0a611f05611f0084611686565b611ee5565b611686565b9050919050565b6000819050919050565b611f2483611eef565b611f38611f3082611f11565b848454611e93565b825550505050565b600090565b611f4d611f40565b611f58818484611f1b565b505050565b5b81811015611f7c57611f71600082611f45565b600181019050611f5e565b5050565b601f821115611fc157611f9281611e61565b611f9b84611e76565b81016020851015611faa578190505b611fbe611fb685611e76565b830182611f5d565b50505b505050565b600082821c905092915050565b6000611fe460001984600802611fc6565b1980831691505092915050565b6000611ffd8383611fd3565b9150826002028217905092915050565b612016826117db565b67ffffffffffffffff81111561202f5761202e611e32565b5b6120398254611d95565b612044828285611f80565b600060209050601f8311600181146120775760008415612065578287015190505b61206f8582611ff1565b8655506120d7565b601f19841661208586611e61565b60005b828110156120ad57848901518255600182019150602085019450602081019050612088565b868310156120ca57848901516120c6601f891682611fd3565b8355505b6001600288020188555050505b505050505050565b7f4e487b7100000000000000000000000000000000000000000000000000000000600052601160045260246000fd5b600061211982611686565b91507fffffffffffffffffffffffffffffffffffffffffffffffffffffffffffffffff820361214b5761214a6120df565b5b600182019050919050565b600061216182611686565b915061216c83611686565b9250828201905080821115612184576121836120df565b5b92915050565b600061219582611686565b91506121a083611686565b92508282039050818111156121b8576121b76120df565b5b92915050565b82818337600083830152505050565b60006121d983856117e6565b93506121e68385846121be565b6121ef83611821565b840190509392505050565b600060408201905081810360008301526122158185876121cd565b905061222460208301846117bd565b949350505050565b7f616c7265616479206c696b656400000000000000000000000000000000000000600082015250565b6000612262600d836117e6565b915061226d8261222c565b602082019050919050565b6000602082019050818103600083015261229181612255565b9050919050565b7f6e6f207469700000000000000000000000000000000000000000000000000000600082015250565b60006122ce6006836117e6565b91506122d982612298565b602082019050919050565b600060208201905081810360008301526122fd816122c1565b9050919050565b600081905092915050565b50565b600061231f600083612304565b915061232a8261230f565b600082019050919050565b600061234082612312565b9150819050919050565b7f7472616e73666572206661696c65640000000000000000000000000000000000600082015250565b6000612380600f836117e6565b915061238b8261234a565b602082019050919050565b600060208201905081810360008301526123af81612373565b9050919050565b60006040820190506123cb60008301856117bd565b6123d860208301846117bd565b9392505050565b7f4e487b7100000000000000000000000000000000000000000000000000000000600052601260045260246000fd5b600061241982611686565b915061242483611686565b925082612434576124336123df565b5b828204905092915050565b600061244a82611686565b915061245583611686565b925082820261246381611686565b9150828204841483151761247a576124796120df565b5b5092915050565b600060608201905061249660008301866117cc565b6124a360208301856117bd565b6124b060408301846117bd565b949350505050565b60006060820190506124cd60008301866117cc565b6124da60208301856117cc565b6124e760408301846117bd565b949350505050565b600060208201905061250460008301846117cc565b9291505056fea2646970667358221220b0f9989e1815e520a7aa16abbd39b8f185d9c13d650609c81c29522814f3d85a64736f6c634300081c0033",
  "linkReferences": {},
  "deployedLinkReferences": {}
}